
00COTAHIST.2003BOVESPA 20040531                                                                                                                                                                                                                      
012003021202VALE3       010VALE R DOCE ON           R$  000000001050100000000105010000000010250000000001036800000000103210000000010321000000001043800142000000000000069500000000000720641400000000000000009999123100000010000000000000BRVALEACNOR0159
012003021202VALE5       010VALE R DOCE PNA          R$  000000001000000000000100800000000009820000000000991800000000098200000000009701000000000982000306000000000000230500000000002286139000000000000000009999123100000010000000000000BRVALEACNPA3160
012003021296TMCP4F      020TELEMIG PARTPN *         R$  000000000024300000000002510000000000242000000000024300000000002510000000000242000000000025200013000000000000377522000000000000092105000000000000009999123100010000000000000000BRTMCPACNPR1105
012003021202RPSA4       010RIPASA      PN      N1   R$  000000000013000000000001330000000000128000000000013000000000001330000000000129000000000013300038000000000000603000000000000078680000000000000000009999123100000010000000000000BRRPSAACNPR6125
012003021202SULT4       010SULTEPA     PN           R$  000000000003100000000000310000000000030000000000003000000000000300000000000028000000000003000007000000000000017000000000000000517000000000000000009999123100000010000000000000BRSULTACNPR9119
012003021202CBEE3       010CERJ        ON *I02      R$  000000000002400000000000240000000000024000000000002400000000000240000000000024000000000002700008000000000052000000000000000001248000000000000000009999123100010000000000000000BRCBEEACNOR3139
012003021202ELPL4       010ELETROPAULO PN *         R$  000000000228900000000023490000000002250000000000229700000000022500000000002250000000000230000205000000000064360000000000000147838690000000000000009999123100010000000000000000BRELPLACNPR6111
012003021202SLED4       010SARAIVA LIVRPN           R$  000000000088400000000008840000000000884000000000088400000000008840000000000870000000000094000001000000000000442200000000000390904800000000000000009999123100000010000000000000BRSLEDACNPR7136
012003021202ITSA4       010ITAUSA      PN      N1   R$  000000000019000000000001910000000000186000000000018800000000001890000000000189000000000019100177000000000001918000000000000362405000000000000000009999123100000010000000000000BRITSAACNPR7268
012003021296TBLE3F      020TRACTEBEL   ON *         R$  000000000034500000000003450000000000320000000000032000000000003200000000000320000000000033800007000000000000048943000000000000015660000000000000009999123100010000000000000000BRTBLEACNOR2102
012003021296SBSP3F      020SABESP      ON *    NM   R$  000000000845400000000090000000000008454000000000864800000000090000000000008920000000000900000031000000000000096513000000000000837645000000000000009999123100010000000000000000BRSBSPACNOR5125
012003021202ARTE4       010KUALA       PN *         R$  000000000100200000000010020000000001001000000000100100000000010010000000001001000000000109900002000000000000030000000000000000030040000000000000009999123100010000000000000000BRARTEACNPR8043
012003021202ITSA3       010ITAUSA      ON      N1   R$  000000000033200000000003320000000000332000000000033200000000003320000000000329000000000000000002000000000000005000000000000001660000000000000000009999123100000010000000000000BRITSAACNOR0268
012003021202ROMI4       010INDS ROMI   PN *         R$  000000000294000000000029400000000002930000000000293600000000029300000000002940000000000304000002000000000000800000000000000002349000000000000000009999123100010000000000000000BRROMIACNPR5026
012003021202RIPI4       010IPIRANGA REFPN *         R$  000000000043500000000004350000000000435000000000043500000000004350000000000430000000000045500001000000000001600000000000000000696000000000000000009999123100010000000000000000BRRIPIACNPR0170
012003021202UGPA3       010ULTRAPAR    ON *         R$  000000000200000000000020000000000002000000000000200000000000020000000000001800000000000210000001000000000000100000000000000000200000000000000000009999123100010000000000000000BRUGPAACNOR8107
012003021202DURA4       010DURATEX     PN *         R$  000000000490000000000049000000000004820000000000489100000000048900000000004810000000000489500014000000000011700000000000000057228500000000000000009999123100010000000000000000BRDURAACNPR8182
012003021202FFTL4       010FOSFERTIL   PN *         R$  000000000098500000000009850000000000970000000000097100000000009750000000000970000000000098000009000000000013600000000000000013213300000000000000009999123100010000000000000000BRFFTLACNPR7125
012003021202POMO4       010MARCOPOLO   PN      N2   R$  000000000039000000000004000000000000390000000000039000000000003980000000000393000000000039800031000000000000047000000000000018340700000000000000009999123100000010000000000000BRPOMOACNPR7043
012003021202UNIP6       010UNIPAR      PNB          R$  000000000010100000000001010000000000099000000000009900000000001000000000000099000000000010000052000000000000662000000000000065995000000000000000009999123100000010000000000000BRUNIPACNPB8154