
00COTAHIST.2003BOVESPA 20040531                                                                                                                                                                                                                      
012003021202VALE3       010VALE R DOCE ON           R$  000000001050100000000105010000000010250000000001036800000000103210000000010321000000001043800142000000000000069500000000000720641400000000000000009999123100000010000000000000BRVALEACNOR0159
012003021202VALE5       010VALE R DOCE PNA          R$  000000001000000000000100800000000009820000000000991800000000098200000000009701000000000982000306000000000000230500000000002286139000000000000000009999123100000010000000000000BRVALEACNPA3160
012003021296TMCP4F      020TELEMIG PARTPN *         R$  000000000024300000000002510000000000242000000000024300000000002510000000000242000000000025200013000000000000377522000000000000092105000000000000009999123100010000000000000000BRTMCPACNPR1105
012003021202RPSA4       010RIPASA      PN      N1   R$  000000000013000000000001330000000000128000000000013000000000001330000000000129000000000013300038000000000000603000000000000078680000000000000000009999123100000010000000000000BRRPSAACNPR6125
012003021202SULT4       010SULTEPA     PN           R$  000000000003100000000000310000000000030000000000003000000000000300000000000028000000000003000007000000000000017000000000000000517000000000000000009999123100000010000000000000BRSULTACNPR9119
012003021202CBEE3       010CERJ        ON *I02      R$  000000000002400000000000240000000000024000000000002400000000000240000000000024000000000002700008000000000052000000000000000001248000000000000000009999123100010000000000000000BRCBEEACNOR3139
012003021202ELPL4       010ELETROPAULO PN *         R$  000000000228900000000023490000000002250000000000229700000000022500000000002250000000000230000205000000000064360000000000000147838690000000000000009999123100010000000000000000BRELPLACNPR6111
012003021202SLED4       010SARAIVA LIVRPN           R$  000000000088400000000008840000000000884000000000088400000000008840000000000870000000000094000001000000000000442200000000000390904800000000000000009999123100000010000000000000BRSLEDACNPR7136
012003021202ITSA4       010ITAUSA      PN      N1   R$  000000000019000000000001910000000000186000000000018800000000001890000000000189000000000019100177000000000001918000000000000362405000000000000000009999123100000010000000000000BRITSAACNPR7268
012003021296TBLE3F      020TRACTEBEL   ON *         R$  000000000034500000000003450000000000320000000000032000000000003200000000000320000000000033800007000000000000048943000000000000015660000000000000009999123100010000000000000000BRTBLEACNOR2102
012003021296SBSP3F      020SABESP      ON *    NM   R$  000000000845400000000090000000000008454000000000864800000000090000000000008920000000000900000031000000000000096513000000000000837645000000000000009999123100010000000000000000BRSBSPACNOR5125
012003021202ARTE4       010KUALA       PN *         R$  000000000100200000000010020000000001001000000000100100000000010010000000001001000000000109900002000000000000030000000000000000030040000000000000009999123100010000000000000000BRARTEACNPR8043
012003021202ITSA3       010ITAUSA      ON      N1   R$  000000000033200000000003320000000000332000000000033200000000003320000000000329000000000000000002000000000000005000000000000001660000000000000000009999123100000010000000000000BRITSAACNOR0268
012003021202ROMI4       010INDS ROMI   PN *         R$  000000000294000000000029400000000002930000000000293600000000029300000000002940000000000304000002000000000000800000000000000002349000000000000000009999123100010000000000000000BRROMIACNPR5026
012003021202RIPI4       010IPIRANGA REFPN *         R$  000000000043500000000004350000000000435000000000043500000000004350000000000430000000000045500001000000000001600000000000000000696000000000000000009999123100010000000000000000BRRIPIACNPR0170
012003021202UGPA3       010ULTRAPAR    ON *         R$  000000000200000000000020000000000002000000000000200000000000020000000000001800000000000210000001000000000000100000000000000000200000000000000000009999123100010000000000000000BRUGPAACNOR8107
012003021202DURA4       010DURATEX     PN *         R$  000000000490000000000049000000000004820000000000489100000000048900000000004810000000000489500014000000000011700000000000000057228500000000000000009999123100010000000000000000BRDURAACNPR8182
012003021202FFTL4       010FOSFERTIL   PN *         R$  000000000098500000000009850000000000970000000000097100000000009750000000000970000000000098000009000000000013600000000000000013213300000000000000009999123100010000000000000000BRFFTLACNPR7125
012003021202POMO4       010MARCOPOLO   PN      N2   R$  000000000039000000000004000000000000390000000000039000000000003980000000000393000000000039800031000000000000047000000000000018340700000000000000009999123100000010000000000000BRPOMOACNPR7043
012003021202UNIP6       010UNIPAR      PNB          R$  000000000010100000000001010000000000099000000000009900000000001000000000000099000000000010000052000000000000662000000000000065995000000000000000009999123100000010000000000000BRUNIPACNPB8154
012003021202EMBR4       010EMBRAER     PN           R$  000000000112900000000011350000000001109000000000111900000000011350000000001130000000000113500282000000000000616500000000000690144000000000000000009999123100000010000000000000BREMBRACNPR1127
012003021202EMBR3       010EMBRAER     ON           R$  000000000101200000000010120000000000970000000000098600000000009700000000000970000000000099000134000000000000168100000000000165893300000000000000009999123100000010000000000000BREMBRACNOR4129
012003021202TLPP4       010TELESP      PN *         R$  000000000308000000000031980000000002990000000000313500000000030750000000003075000000000310000160000000000137800000000000000432035400000000000000009999123100010000000000000000BRTLPPACNPR5109
012003021202TLPP3       010TELESP      ON *         R$  000000000226000000000023500000000002260000000000229500000000023500000000002350000000000239900043000000000025100000000000000057604900000000000000009999123100010000000000000000BRTLPPACNOR8109
012003021202FJTA4       010FORJA TAURUSPN *         R$  000000000017100000000001710000000000167000000000016900000000001670000000000165000000000016800009000000000019700000000000000003336600000000000000009999123100010000000000000000BRFJTAACNPR2128
012003021296CSTB4F      020SID TUBARAO PN *         R$  000000000420000000000044000000000004200000000000431200000000043500000000004350000000000439000034000000000000827777000000000003569770000000000000009999123100010000000000000000BRCSTBACNPR8122
012003021202CSTB4       010SID TUBARAO PN *         R$  000000000420000000000044120000000004200000000000435200000000043460000000004346000000000438900208000000000122700000000000000534102800000000000000009999123100010000000000000000BRCSTBACNPR8122
012003021202CRTP5       010CRT CELULAR PNA*         R$  000000003250000000000329000000000032052000000003225800000000324000000000032200000000003240000155000000000006468000000000000208647942000000000000009999123100010000000000000000BRCRTPACNPA6106
012003021202RNPT3       010RENNER PART ON *         R$  000000000050200000000005020000000000502000000000050200000000005020000000000000000000000000000001000000000028600000000000000014357200000000000000009999123100010000000000000000BRRNPTACNOR0109
012003021202TSEP4       010TELE SUDESTEPN *         R$  000000000063300000000006410000000000633000000000063600000000006410000000000621000000000064100006000000000002200000000000000001400400000000000000009999123100010000000000000000BRTSEPACNPR4110
012003021202TSEP3       010TELE SUDESTEON *         R$  000000000050000000000005020000000000496000000000049900000000005020000000000496000000000050200017000000000004600000000000000002298800000000000000009999123100010000000000000000BRTSEPACNOR7110
012003021202TRPL4       010TRAN PAULISTPN *    N1   R$  000000000052500000000005330000000000512000000000052500000000005210000000000521000000000052900074000000000071400000000000000037493100000000000000009999123100010000000000000000BRTRPLACNPR1108
012003021202BMTO4       010BRASMOTOR   PN *         R$  000000001500000000000159980000000015000000000001502300000000150000000000014201000000001500000008000000000001050000000000000015774970000000000000009999123100010000000000000000BRBMTOACNPR6051
012003021202EBTP4       010EMBRATEL PARPN *         R$  000000000031300000000003150000000000305000000000031000000000003080000000000308000000000030900740000000003006400000000000000933408200000000000000009999123100010000000000000000BREBTPACNPR0105
012003021202CRUZ3       010SOUZA CRUZ  ON           R$  000000000182000000000018550000000001810000000000182900000000018500000000001837000000000185000209000000000000344200000000000629886800000000000000009999123100000010000000000000BRCRUZACNOR0181
012003021202CMIG4       010CEMIG       PN *    N1   R$  000000000247500000000024900000000002431000000000245700000000024310000000002431000000000245000327000000000408000000000000001002564000000000000000009999123100010000000000000000BRCMIGACNPR3181
012003021202CMIG3       010CEMIG       ON *    N1   R$  000000000208000000000021800000000002052000000000210600000000021100000000002058000000000211000049000000000024600000000000000051815800000000000000009999123100010000000000000000BRCMIGACNOR6181
012003021202TRPL3       010TRAN PAULISTON *    N1   R$  000000000050000000000005040000000000490000000000049600000000004900000000000504000000000051000010000000000013600000000000000006758500000000000000009999123100010000000000000000BRTRPLACNOR4108
012003021202GOAU4       010GERDAU MET  PN *         R$  000000000510000000000053500000000005100000000000524500000000053150000000005318000000000534000092000000000093800000000000000492028800000000000000009999123100010000000000000000BRGOAUACNPR8185
012003021202GGBR4       010GERDAU      PN *    N1   R$  000000000299000000000032200000000002990000000000313600000000031500000000003150000000000321900372000000000331600000000000001039978700000000000000009999123100010000000000000000BRGGBRACNPR8104