
00COTAHIST.2003BOVESPA 20040531                                                                                                                                                                                                                      
012003021202VALE3       010VALE R DOCE ON           R$  000000001050100000000105010000000010250000000001036800000000103210000000010321000000001043800142000000000000069500000000000720641400000000000000009999123100000010000000000000BRVALEACNOR0159
012003021202VALE5       010VALE R DOCE PNA          R$  000000001000000000000100800000000009820000000000991800000000098200000000009701000000000982000306000000000000230500000000002286139000000000000000009999123100000010000000000000BRVALEACNPA3160
012003021296TMCP4F      020TELEMIG PARTPN *         R$  000000000024300000000002510000000000242000000000024300000000002510000000000242000000000025200013000000000000377522000000000000092105000000000000009999123100010000000000000000BRTMCPACNPR1105
012003021202RPSA4       010RIPASA      PN      N1   R$  000000000013000000000001330000000000128000000000013000000000001330000000000129000000000013300038000000000000603000000000000078680000000000000000009999123100000010000000000000BRRPSAACNPR6125
012003021202SULT4       010SULTEPA     PN           R$  000000000003100000000000310000000000030000000000003000000000000300000000000028000000000003000007000000000000017000000000000000517000000000000000009999123100000010000000000000BRSULTACNPR9119
012003021202CBEE3       010CERJ        ON *I02      R$  000000000002400000000000240000000000024000000000002400000000000240000000000024000000000002700008000000000052000000000000000001248000000000000000009999123100010000000000000000BRCBEEACNOR3139
012003021202ELPL4       010ELETROPAULO PN *         R$  000000000228900000000023490000000002250000000000229700000000022500000000002250000000000230000205000000000064360000000000000147838690000000000000009999123100010000000000000000BRELPLACNPR6111
012003021202SLED4       010SARAIVA LIVRPN           R$  000000000088400000000008840000000000884000000000088400000000008840000000000870000000000094000001000000000000442200000000000390904800000000000000009999123100000010000000000000BRSLEDACNPR7136
012003021202ITSA4       010ITAUSA      PN      N1   R$  000000000019000000000001910000000000186000000000018800000000001890000000000189000000000019100177000000000001918000000000000362405000000000000000009999123100000010000000000000BRITSAACNPR7268
012003021296TBLE3F      020TRACTEBEL   ON *         R$  000000000034500000000003450000000000320000000000032000000000003200000000000320000000000033800007000000000000048943000000000000015660000000000000009999123100010000000000000000BRTBLEACNOR2102
012003021296SBSP3F      020SABESP      ON *    NM   R$  000000000845400000000090000000000008454000000000864800000000090000000000008920000000000900000031000000000000096513000000000000837645000000000000009999123100010000000000000000BRSBSPACNOR5125
012003021202ARTE4       010KUALA       PN *         R$  000000000100200000000010020000000001001000000000100100000000010010000000001001000000000109900002000000000000030000000000000000030040000000000000009999123100010000000000000000BRARTEACNPR8043
012003021202ITSA3       010ITAUSA      ON      N1   R$  000000000033200000000003320000000000332000000000033200000000003320000000000329000000000000000002000000000000005000000000000001660000000000000000009999123100000010000000000000BRITSAACNOR0268
012003021202ROMI4       010INDS ROMI   PN *         R$  000000000294000000000029400000000002930000000000293600000000029300000000002940000000000304000002000000000000800000000000000002349000000000000000009999123100010000000000000000BRROMIACNPR5026
012003021202RIPI4       010IPIRANGA REFPN *         R$  000000000043500000000004350000000000435000000000043500000000004350000000000430000000000045500001000000000001600000000000000000696000000000000000009999123100010000000000000000BRRIPIACNPR0170
012003021202UGPA3       010ULTRAPAR    ON *         R$  000000000200000000000020000000000002000000000000200000000000020000000000001800000000000210000001000000000000100000000000000000200000000000000000009999123100010000000000000000BRUGPAACNOR8107
012003021202DURA4       010DURATEX     PN *         R$  000000000490000000000049000000000004820000000000489100000000048900000000004810000000000489500014000000000011700000000000000057228500000000000000009999123100010000000000000000BRDURAACNPR8182
012003021202FFTL4       010FOSFERTIL   PN *         R$  000000000098500000000009850000000000970000000000097100000000009750000000000970000000000098000009000000000013600000000000000013213300000000000000009999123100010000000000000000BRFFTLACNPR7125
012003021202POMO4       010MARCOPOLO   PN      N2   R$  000000000039000000000004000000000000390000000000039000000000003980000000000393000000000039800031000000000000047000000000000018340700000000000000009999123100000010000000000000BRPOMOACNPR7043
012003021202UNIP6       010UNIPAR      PNB          R$  000000000010100000000001010000000000099000000000009900000000001000000000000099000000000010000052000000000000662000000000000065995000000000000000009999123100000010000000000000BRUNIPACNPB8154
012003021202EMBR4       010EMBRAER     PN           R$  000000000112900000000011350000000001109000000000111900000000011350000000001130000000000113500282000000000000616500000000000690144000000000000000009999123100000010000000000000BREMBRACNPR1127
012003021202EMBR3       010EMBRAER     ON           R$  000000000101200000000010120000000000970000000000098600000000009700000000000970000000000099000134000000000000168100000000000165893300000000000000009999123100000010000000000000BREMBRACNOR4129
012003021202TLPP4       010TELESP      PN *         R$  000000000308000000000031980000000002990000000000313500000000030750000000003075000000000310000160000000000137800000000000000432035400000000000000009999123100010000000000000000BRTLPPACNPR5109
012003021202TLPP3       010TELESP      ON *         R$  000000000226000000000023500000000002260000000000229500000000023500000000002350000000000239900043000000000025100000000000000057604900000000000000009999123100010000000000000000BRTLPPACNOR8109
012003021202FJTA4       010FORJA TAURUSPN *         R$  000000000017100000000001710000000000167000000000016900000000001670000000000165000000000016800009000000000019700000000000000003336600000000000000009999123100010000000000000000BRFJTAACNPR2128
012003021296CSTB4F      020SID TUBARAO PN *         R$  000000000420000000000044000000000004200000000000431200000000043500000000004350000000000439000034000000000000827777000000000003569770000000000000009999123100010000000000000000BRCSTBACNPR8122
012003021202CSTB4       010SID TUBARAO PN *         R$  000000000420000000000044120000000004200000000000435200000000043460000000004346000000000438900208000000000122700000000000000534102800000000000000009999123100010000000000000000BRCSTBACNPR8122
012003021202CRTP5       010CRT CELULAR PNA*         R$  000000003250000000000329000000000032052000000003225800000000324000000000032200000000003240000155000000000006468000000000000208647942000000000000009999123100010000000000000000BRCRTPACNPA6106
012003021202RNPT3       010RENNER PART ON *         R$  000000000050200000000005020000000000502000000000050200000000005020000000000000000000000000000001000000000028600000000000000014357200000000000000009999123100010000000000000000BRRNPTACNOR0109
012003021202TSEP4       010TELE SUDESTEPN *         R$  000000000063300000000006410000000000633000000000063600000000006410000000000621000000000064100006000000000002200000000000000001400400000000000000009999123100010000000000000000BRTSEPACNPR4110
012003021202TSEP3       010TELE SUDESTEON *         R$  000000000050000000000005020000000000496000000000049900000000005020000000000496000000000050200017000000000004600000000000000002298800000000000000009999123100010000000000000000BRTSEPACNOR7110
012003021202TRPL4       010TRAN PAULISTPN *    N1   R$  000000000052500000000005330000000000512000000000052500000000005210000000000521000000000052900074000000000071400000000000000037493100000000000000009999123100010000000000000000BRTRPLACNPR1108
012003021202BMTO4       010BRASMOTOR   PN *         R$  000000001500000000000159980000000015000000000001502300000000150000000000014201000000001500000008000000000001050000000000000015774970000000000000009999123100010000000000000000BRBMTOACNPR6051
012003021202EBTP4       010EMBRATEL PARPN *         R$  000000000031300000000003150000000000305000000000031000000000003080000000000308000000000030900740000000003006400000000000000933408200000000000000009999123100010000000000000000BREBTPACNPR0105
012003021202CRUZ3       010SOUZA CRUZ  ON           R$  000000000182000000000018550000000001810000000000182900000000018500000000001837000000000185000209000000000000344200000000000629886800000000000000009999123100000010000000000000BRCRUZACNOR0181
012003021202CMIG4       010CEMIG       PN *    N1   R$  000000000247500000000024900000000002431000000000245700000000024310000000002431000000000245000327000000000408000000000000001002564000000000000000009999123100010000000000000000BRCMIGACNPR3181
012003021202CMIG3       010CEMIG       ON *    N1   R$  000000000208000000000021800000000002052000000000210600000000021100000000002058000000000211000049000000000024600000000000000051815800000000000000009999123100010000000000000000BRCMIGACNOR6181
012003021202TRPL3       010TRAN PAULISTON *    N1   R$  000000000050000000000005040000000000490000000000049600000000004900000000000504000000000051000010000000000013600000000000000006758500000000000000009999123100010000000000000000BRTRPLACNOR4108
012003021202GOAU4       010GERDAU MET  PN *         R$  000000000510000000000053500000000005100000000000524500000000053150000000005318000000000534000092000000000093800000000000000492028800000000000000009999123100010000000000000000BRGOAUACNPR8185
012003021202GGBR4       010GERDAU      PN *    N1   R$  000000000299000000000032200000000002990000000000313600000000031500000000003150000000000321900372000000000331600000000000001039978700000000000000009999123100010000000000000000BRGGBRACNPR8104
012003021202BELG4       010BELGO MINEIRPN *         R$  000000004239900000000425000000000041500000000004193800000000425000000000042000000000004250000017000000000000420000000000000017614050000000000000009999123100010000000000000000BRBELGACNPR6144
012003021202BELG3       010BELGO MINEIRON *         R$  000000003750100000000375010000000037500000000003750000000000375010000000037501000000003800000005000000000000090000000000000003375030000000000000009999123100010000000000000000BRBELGACNOR9144
012003021202MAGS5       010MAGNESITA   PNA*         R$  000000000041900000000004190000000000417000000000041700000000004170000000000416000000000041700006000000000012700000000000000005297300000000000000009999123100010000000000000000BRMAGSACNPA2154
012003021202JBDU4       010J B DUARTE  PN *         R$  000000000001100000000000130000000000011000000000001100000000000130000000000009000000000001300004000000000004800000000000000000053700000000000000009999123100010000000000000000BRJBDUACNPR3123
012003021202TPRC6       010TELEPAR CL  PNB*         R$  000000000630000000000065000000000006300000000000641500000000065000000000006280000000000650000007000000000000120000000000000000769870000000000000009999123100010000000000000000BRTPRCACNPB4103
012003021202RAPT4       010RANDON PART PN *    N1   R$  000000000010500000000001090000000000104000000000010400000000001060000000000105000000000010900014000000000335200000000000000035181800000000000000009999123100010000000000000000BRRAPTACNPR4111
012003021202SAPR4       010SANEPAR     PN           R$  000000000014000000000001440000000000140000000000014200000000001440000000000140000000000014500003000000000000004000000000000000568000000000000000009999123100000010000000000000BRSAPRACNPR6108
012003021202CEEB3       010COELBA      ON *         R$  000000000415100000000042000000000004151000000000415500000000042000000000004150000000000420000002000000000001200000000000000004986100000000000000009999123100010000000000000000BRCEEBACNOR3114
012003021202JBDU3       010J B DUARTE  ON *         R$  000000000001500000000000150000000000014000000000001400000000000140000000000014000000000002000002000000000001700000000000000000024800000000000000009999123100010000000000000000BRJBDUACNOR6123
012003021202GGBR3       010GERDAU      ON *    N1   R$  000000000240000000000024000000000002400000000000240000000000024000000000002400000000000250000001000000000000500000000000000001200000000000000000009999123100010000000000000000BRGGBRACNOR1104
012003021202PQUN4       010PETROQ UNIAOPN           R$  000000000066000000000006600000000000660000000000066000000000006600000000000635000000000000000003000000000000024000000000000015840000000000000000009999123100000010000000000000BRPQUNACNPR7155
012003021202CNFB4       010CONFAB      PN           R$  000000000037900000000003790000000000365000000000037000000000003690000000000366000000000037000046000000000000222000000000000082332000000000000000009999123100000010000000000000BRCNFBACNPR8024
012003021202PLTO5       010POLITENO    PNA*         R$  000000000029900000000002990000000000299000000000029900000000002990000000000250000000000029700001000000000001400000000000000000418600000000000000009999123100010000000000000000BRPLTOACNPA4136
012003021202EBCO4       010EMBRACO     PN           R$  000000000015100000000001510000000000151000000000015100000000001510000000000152000000000016000002000000000000005000000000000000755000000000000000009999123100000010000000000000BREBCOACNPR9144
012003021210BBDC2       010BRADESCO    DIR*PRE N1   R$  000000000021000000000002300000000000210000000000021700000000002250000000000225000000000022700115000000000368300000000000000080049000000000000000009999123100010000000000000000BRBBDCD08PR8437
012003021296BBDC1F      020BRADESCO    DIR*ORD N1   R$  000000000006500000000000710000000000061000000000006600000000000610000000000000000000000006100022000000000000568507000000000000037302000000000000009999123100010000000000000000BRBBDCD08OR1437
012003021210BBDC1       010BRADESCO    DIR*ORD N1   R$  000000000006500000000000800000000000065000000000007400000000000700000000000070000000000009000030000000000093300000000000000006933600000000000000009999123100010000000000000000BRBBDCD08OR1437
012003021202ROMI3       010INDS ROMI   ON *         R$  000000000267300000000026730000000002673000000000267300000000026730000000002700000000000300000001000000000000100000000000000000267300000000000000009999123100010000000000000000BRROMIACNOR8134
012003021214UBBR11      010UNIBANCO    UNT*    N1   R$  000000000822000000000084600000000008200000000000832900000000083500000000008350000000000845000034000000000017800000000000000148269900000000000000009999123100010000000000000000BRUBBRCDAM14112
012003021202UBBR4       010UNIBANCO    PN *    N1   R$  000000000344000000000034500000000003370000000000339700000000034000000000003330000000000339900007000000000001100000000000000003738000000000000000009999123100010000000000000000BRUBBRACNPR0186
012003021214TEFC11      010TELEFONICA  BDR          R$  000000000340000000000034000000000003400000000000340000000000034000000000003350000000000345000001000000000000000100000000000000340000000000000000009999123100000010000000000000BRTEFCBDR014105
012003021202BRGE11      010ALFA CONSORCPNE          R$  000000000019100000000001910000000000190000000000019000000000001900000000000172000000000000000002000000000000002000000000000000381000000000000000009999123100000010000000000000BRBRGEACNPE1070
012003021202ITAU3       010ITAUBANCO   ON *EJ  N1   R$  000000001500000000000150000000000015000000000001500000000000150000000000015001000000001520000001000000000000010000000000000000150000000000000000009999123100010000000000000000BRITAUACNOR6410
012003021202ITAU4       010ITAUBANCO   PN *EJ  N1   R$  000000001573000000000161300000000015730000000001599200000000160000000000016000000000001612000340000000000082240000000000001315251150000000000000009999123100010000000000000000BRITAUACNPR3410
012003021202RPAD6       010ALFA HOLDINGPNB          R$  000000000015500000000001550000000000155000000000015500000000001550000000000153000000000000000002000000000000003000000000000000465000000000000000009999123100000010000000000000BRRPADACNPB2176
012003021202BBDC4       010BRADESCO    PN *EJ  N1   R$  000000000097500000000009890000000000967000000000097900000000009800000000000980000000000098600602000000002112100000000000002069294400000000000000009999123100010000000000000000BRBBDCACNPR8439
012003021202BBDC3       010BRADESCO    ON *EJ  N1   R$  000000000084000000000008500000000000835000000000084000000000008350000000000830000000000083500048000000000058800000000000000049401100000000000000009999123100010000000000000000BRBBDCACNOR1439
012003021296PETR4F      020PETROBRAS   PN           R$  000000000465000000000047050000000004600000000000464700000000047050000000004681000000000471000071000000000000002217000000000010303928000000000000009999123100000010000000000000BRPETRACNPR6147
012003021202BMCT4       010MERC S PAULOPN *ED       R$  000000001150000000000115000000000011500000000001150000000000115000000000009202000000001140000001000000000000150000000000000001725000000000000000009999123100010000000000000000BRBMCTACNPR1413
012003021202BRTO4       010BRASIL TELECPN *EJ  N1   R$  000000000100000000000010080000000000980000000000098900000000009800000000000980000000000098500393000000002074400000000000002053100900000000000000009999123100010000000000000000BRBRTOACNPR5104
012003021202BRTO3       010BRASIL TELECON *EJ  N1   R$  000000000097000000000009700000000000951000000000096200000000009510000000000951000000000000000003000000000000500000000000000000481200000000000000009999123100010000000000000000BRBRTOACNOR8104
012003021202BRTP4       010BRASIL T PARPN *EJ  N1   R$  000000000171000000000017540000000001700000000000173300000000017210000000001721000000000174300271000000000454000000000000000787122300000000000000009999123100010000000000000000BRBRTPACNPR2104
012003021202BRTP3       010BRASIL T PARON *EJ  N1   R$  000000000132000000000013310000000001250000000000132100000000012500000000001250000000000140000156000000000184300000000000000243603300000000000000009999123100010000000000000000BRBRTPACNOR5104
012003021202RCTB42      010TELES RCTB  R42*EJ       R$  000000000616000000000061800000000006070000000000613800000000061300000000000000000000000000000011000000000001100000000000000006752500000000000000009999123100010000000000000000BRRCTBCSA066036
012003021202SDIA4       010SADIA S/A   PN  EJ  N1   R$  000000000011900000000001210000000000119000000000011900000000001190000000000119000000000012100066000000000001055000000000000126069000000000000000009999123100000010000000000000BRSDIAACNPR1106
012003021296AMBV3F      020AMBEV       ON *         R$  000000004200000000000431000000000042000000000004303600000000431000000000042000000000004500000004000000000000008798000000000000378633000000000000009999123100010000000000000000BRAMBVACNOR4107
012003021202AMBV3       010AMBEV       ON *         R$  000000004310000000000431000000000043100000000004310000000000431000000000043100000000004600000001000000000000210000000000000009051000000000000000009999123100010000000000000000BRAMBVACNOR4107
012003021296ALPA4F      020ALPARGATAS  PN *         R$  000000001120000000000112000000000011200000000001120000000000112000000000011000000000001280000001000000000000000686000000000000007683000000000000009999123100010000000000000000BRALPAACNPR7155
012003021296AELP3F      020AES ELPA    ON *         R$  000000000029300000000003100000000000293000000000029900000000002930000000000293000000000030000008000000000000137196000000000000041094000000000000009999123100010000000000000000BRAELPACNOR2100
012003021202AELP3       010AES ELPA    ON *         R$  000000000030000000000003000000000000300000000000030000000000003000000000000296000000000031500001000000000005000000000000000001500000000000000000009999123100010000000000000000BRAELPACNOR2100
012003021296ACES4F      020ACESITA     PN *         R$  000000000009900000000001010000000000098000000000009900000000001010000000000100000000000010200019000000000000379681000000000000037913000000000000009999123100010000000000000000BRACESACNPR2130
012003021202ACES4       010ACESITA     PN *         R$  000000000009800000000001020000000000098000000000010000000000001020000000000101000000000010200367000000004789800000000000000479841000000000000000009999123100010000000000000000BRACESACNPR2130
012003021296ACES3F      020ACESITA     ON *         R$  000000000010200000000001020000000000102000000000010200000000001020000000000083000000000010200001000000000000000004000000000000000000000000000000009999123100010000000000000000BRACESACNOR5131
012003021202ACES3       010ACESITA     ON *         R$  000000000008100000000000840000000000081000000000008100000000000840000000000083000000000008400020000000000119700000000000000009787100000000000000009999123100010000000000000000BRACESACNOR5131
012003021296ARCZ6F      020ARACRUZ     PNB     N1   R$  000000000068000000000007050000000000680000000000069700000000007050000000000700000000000071100009000000000000002441000000000001702220000000000000009999123100000010000000000000BRARCZACNPB3128
012003021202ARCZ6       010ARACRUZ     PNB     N1   R$  000000000069400000000007190000000000688000000000069900000000007040000000000704000000000071400103000000000000303000000000000211927000000000000000009999123100000010000000000000BRARCZACNPB3128
012003021296AMBV4F      020AMBEV       PN *         R$  000000004780000000000490000000000047600000000004795000000000479800000000047980000000004950000018000000000000056988000000000002732621000000000000009999123100010000000000000000BRAMBVACNPR1107
012003021202AMBV4       010AMBEV       PN *         R$  000000004810000000000484900000000047798000000004799700000000479100000000047910000000004950000173000000000018400000000000000883156160000000000000009999123100010000000000000000BRAMBVACNPR1107
012003021202ASTA4       010SANTISTEXTILPN *         R$  000000003300000000000330000000000033000000000003300000000000330000000000032500000000003350000003000000000000130000000000000004290000000000000000009999123100010000000000000000BRASTAACNPR4106
012003021202BDLL4       010BARDELLA    PN           R$  000000000432000000000043200000000004201000000000431800000000042010000000004201000000000429000006000000000000000229000000000000988842000000000000009999123100000010000000000000BRBDLLACNPR8139
012003021202BCAL6       010BIC CALOI   PNB*         R$  000000000000600000000000070000000000006000000000000600000000000070000000000006000000000000700003000000000040000000000000000000250000000000000000009999123100010000000000000000BRBCALACNPB7112
012003021296BBDC2F      020BRADESCO    DIR*PRE N1   R$  000000000020500000000002310000000000203000000000021300000000002200000000000220000000000022500112000000000002659309000000000000569687000000000000009999123100010000000000000000BRBBDCD08PR8437
012003021296BBDC4F      020BRADESCO    PN *EJ  N1   R$  000000000095100000000009980000000000951000000000097800000000009980000000000980000000000100000089000000000001732669000000000001694831000000000000009999123100010000000000000000BRBBDCACNPR8439
012003021296BBDC3F      020BRADESCO    ON *EJ  N1   R$  000000000083000000000008600000000000830000000000083800000000008600000000000820000000000086000017000000000000239115000000000000200542000000000000009999123100010000000000000000BRBBDCACNOR1439
012003021296BBAS13F     020BRASIL      BNS*C        R$  000000000008700000000000900000000000087000000000008800000000000890000000000087000000000010000006000000000000168394000000000000014852000000000000009999123100010000000000000000BRBBASN02OR5100
012003021222BBAS13      010BRASIL      BNS*C        R$  000000000008800000000000900000000000088000000000008800000000000880000000000088000000000009000007000000000005700000000000000000506600000000000000009999123100010000000000000000BRBBASN02OR5100
012003021296BBAS12F     020BRASIL      BNS*B        R$  000000000005700000000000570000000000056000000000005600000000000570000000000056000000000009900008000000000000274957000000000000015625000000000000009999123100010000000000000000BRBBASN01OR7100
012003021222BBAS12      010BRASIL      BNS*B        R$  000000000005800000000000580000000000057000000000005700000000000570000000000056000000000005900007000000000003400000000000000000194800000000000000009999123100010000000000000000BRBBASN01OR7100
012003021296BBAS3F      020BRASIL      ON *ED       R$  000000000098900000000009900000000000960000000000096700000000009720000000000941000000000097300040000000000000826452000000000000799361000000000000009999123100010000000000000000BRBBASACNOR3172
012003021202BBAS3       010BRASIL      ON *ED       R$  000000000095800000000009780000000000958000000000096700000000009630000000000963000000000097000329000000000444600000000000000429970900000000000000009999123100010000000000000000BRBBASACNOR3172
012003021202BAZA3       010AMAZONIA    ON *         R$  000000001600000000000160000000000016000000000001600000000000160000000000015800000000001650000002000000000000050000000000000000800000000000000000009999123100010000000000000000BRBAZAACNOR0145
012003021296BESP4F      020BANESPA     PN *         R$  000000001800000000000185000000000018000000000001812500000000185000000000018000000000001850000002000000000000001869000000000000033876000000000000009999123100010000000000000000BRBESPACNPR2160
012003021202BESP4       010BANESPA     PN *         R$  000000001850000000000185000000000018500000000001850000000000185000000000018500000000001889900001000000000000040000000000000000740000000000000000009999123100010000000000000000BRBESPACNPR2160
012003021296BESP3F      020BANESPA     ON *         R$  000000001750000000000185000000000017500000000001768700000000185000000000017500000000001850000002000000000000004491000000000000079433000000000000009999123100010000000000000000BRBESPACNOR5160
012003021202BESP3       010BANESPA     ON *         R$  000000001850000000000185000000000018500000000001850000000000185000000000017110000000001990000002000000000000020000000000000000370000000000000000009999123100010000000000000000BRBESPACNOR5160
012003021296BELG4F      020BELGO MINEIRPN *         R$  000000004150000000000422000000000041500000000004153600000000422000000000042200000000004240000007000000000000019082000000000000792603000000000000009999123100010000000000000000BRBELGACNPR6144
012003021296BELG3F      020BELGO MINEIRON *         R$  000000003670100000000375000000000036701000000003710000000000375000000000036710000000000000000002000000000000013392000000000000496849000000000000009999123100010000000000000000BRBELGACNOR9144
012003021202BIOM4       010BIOMM       PN           R$  000000000006500000000000650000000000065000000000006500000000000650000000000060000000000007000002000000000000004000000000000000260000000000000000009999123100000010000000000000BRBIOMACNPR9100
012003021296BRAP4F      020BRADESPAR   PN *    N1   R$  000000000006700000000000690000000000066000000000006700000000000670000000000066000000000006700033000000000001198865000000000000080394000000000000009999123100010000000000000000BRBRAPACNPR2102
012003021202BRAP4       010BRADESPAR   PN *    N1   R$  000000000006700000000000690000000000067000000000006700000000000670000000000067000000000006800231000000003674000000000000000248521200000000000000009999123100010000000000000000BRBRAPACNPR2102
012003021296BRAP3F      020BRADESPAR   ON *    N1   R$  000000000005700000000000590000000000056000000000005600000000000590000000000056000000000005900010000000000000247021000000000000014024000000000000009999123100010000000000000000BRBRAPACNOR5102
012003021202BRAP3       010BRADESPAR   ON *    N1   R$  000000000005700000000000590000000000057000000000005700000000000580000000000058000000000005900030000000000895700000000000000051478700000000000000009999123100010000000000000000BRBRAPACNOR5102
012003021296BOBR4F      020BOMBRIL     PN *         R$  000000000065000000000006500000000000591000000000059700000000006000000000000590000000000000000005000000000000117470000000000000070235000000000000009999123100010000000000000000BRBOBRACNPR3125
012003021202BOBR4       010BOMBRIL     PN *         R$  000000000060300000000006040000000000591000000000060100000000006000000000000591000000000060000067000000000100000000000000000060101100000000000000009999123100010000000000000000BRBOBRACNPR3125
012003021202BNBR4       010NORD BRASIL PN *         R$  000000000010000000000001020000000000100000000000010100000000001020000000000050000000000020000002000000000006000000000000000000611800000000000000009999123100010000000000000000BRBNBRACNPR5165
012003021296BRTO4F      020BRASIL TELECPN *EJ  N1   R$  000000000099800000000010000000000000981000000000099000000000009880000000000988000000000101400033000000000000730683000000000000724035000000000000009999123100010000000000000000BRBRTOACNPR5104
012003021296BRTO3F      020BRASIL TELECON *EJ  N1   R$  000000000097500000000009750000000000940000000000096200000000009400000000000940000000000100000012000000000000339341000000000000326687000000000000009999123100010000000000000000BRBRTOACNOR8104
012003021296BRKM5F      020BRASKEM     PNA*         R$  000000001700000000000170000000000016950000000001697000000000169500000000016701000000001709500004000000000000005143000000000000087281000000000000009999123100010000000000000000BRBRKMACNPA4100
012003021202BRKM5       010BRASKEM     PNA*         R$  000000001720000000000173990000000016600000000001686200000000168000000000016800000000001686000075000000000004150000000000000069980230000000000000009999123100010000000000000000BRBRKMACNPA4100
012003021296BRIV3F      020ALFA INVEST ON           R$  000000000034000000000003400000000000340000000000034000000000003400000000000340000000000000000001000000000000000444000000000000150960000000000000009999123100000010000000000000BRBRIVACNOR6176
012003021296BRGE12F     020ALFA CONSORCPNF          R$  000000000017500000000001750000000000175000000000017500000000001750000000000175000000000000000001000000000000000792000000000000138600000000000000009999123100000010000000000000BRBRGEACNPF8070
012003021296BRGE11F     020ALFA CONSORCPNE          R$  000000000018100000000001810000000000181000000000018100000000001810000000000180000000000000000001000000000000000800000000000000144800000000000000009999123100000010000000000000BRBRGEACNPE1070
012003021296BRGE8F      020ALFA CONSORCPND          R$  000000000017000000000001700000000000170000000000017000000000001700000000000170000000000000000001000000000000000018000000000000003060000000000000009999123100000010000000000000BRBRGEACNPD3179
012003021296BRGE6F      020ALFA CONSORCPNB          R$  000000000017600000000001770000000000176000000000017600000000001760000000000175000000000000000003000000000000000920000000000000162280000000000000009999123100000010000000000000BRBRGEACNPB7177
012003021202BSUL6       010BAHIA SUL   PNB*         R$  000000003300000000000330000000000033000000000003300000000000330000000000000000000000000000000001000000000000110000000000000003630000000000000000009999123100010000000000000000BRBSULACNPB1100
012003021296BRTP4F      020BRASIL T PARPN *EJ  N1   R$  000000000171200000000017600000000001712000000000172900000000017330000000001716000000000177800026000000000000623782000000000001077779000000000000009999123100010000000000000000BRBRTPACNPR2104
012003021296BRTP3F      020BRASIL T PARON *EJ  N1   R$  000000000122000000000013300000000001220000000000129400000000012900000000001280000000000132500028000000000000806970000000000001044529000000000000009999123100010000000000000000BRBRTPACNOR5104
012003021202CCRO3       010CCR RODOVIASON      NM   R$  000000000074100000000007410000000000730000000000074000000000007300000000000711000000000074000005000000000000034000000000000025160000000000000000009999123100000010000000000000BRCCROACNOR2100
012003021296CEPE6F      020CELPE       PNB*         R$  000000000055000000000005500000000000550000000000055000000000005500000000000500000000000000000001000000000000050000000000000000027500000000000000009999123100010000000000000000BRCEPEACNPB4110
012003021202CEPE6       010CELPE       PNB*         R$  000000000057500000000005750000000000575000000000057500000000005750000000000575000000000000000002000000000001400000000000000000805000000000000000009999123100010000000000000000BRCEPEACNPB4110
012003021202CEPE5       010CELPE       PNA*         R$  000000000057000000000005700000000000570000000000057000000000005700000000000570000000000062900001000000000001000000000000000000570000000000000000009999123100010000000000000000BRCEPEACNPA6110
012003021202CEBR6       010CEB         PNB*         R$  000000000087500000000008800000000000875000000000087600000000008800000000000875000000000153900003000000000000410000000000000000359550000000000000009999123100010000000000000000BRCEBRACNPB6109
012003021202CEBR5       010CEB         PNA*         R$  000000000205000000000020500000000002050000000000205000000000020500000000001800000000000200000001000000000000200000000000000000410000000000000000009999123100010000000000000000BRCEBRACNPA8109
012003021296CHAP4F      020CHAPECO     PN           R$  000000000002100000000000250000000000021000000000002100000000000250000000000021000000000002500002000000000000001043000000000000022143000000000000009999123100000010000000000000BRCHAPACNPR1137
012003021202CHAP4       010CHAPECO     PN           R$  000000000002500000000000250000000000025000000000002500000000000250000000000025000000000003100001000000000000001000000000000000025000000000000000009999123100000010000000000000BRCHAPACNPR1137
012003021296CHAP3F      020CHAPECO     ON           R$  000000000002100000000000210000000000021000000000002100000000000210000000000023000000000002500001000000000000000013000000000000000273000000000000009999123100000010000000000000BRCHAPACNOR4138